:020000040800F2
:10000000E81100206D020008314F0008D9430008B4
:10001000A14C0008A1160008B16200080000000011
:100020000000000000000000000000001959000856
:100030007519000800000000AD540008415900087F
:10004000870200088702000887020008870200086C
:10005000870200088702000887020008870200085C
:100060009519000887020008870200088702000827
:1000700071180008870200087D1800088702000830
:100080008918000895180008870200088D170008D5
:10009000811700088702000887020008870200080D
:1000A000870200088702000887020008870200080C
:1000B000F5590008015A0008870200088702000865
:1000C00087020008870200088702000887020008EC
:1000D00087020008A5610008B1610008D16100082D
:1000E00087020008870200088702000887020008CC
:1000F00087020008870200088702000887020008BC
:100100008702000887020008A55A00088702000835
:100110008702000887020008B15A00088702000819
:1001200087020008A1180008AD180008870200081F
:10013000870200088702000887020008A517000848
:100140009917000887020008870200088702000844
:1001500087020008B9180008C5180008DD6100080A
:10016000870200088702000887020008870200084B
:1001700087020008870200088702000800000000CC
:10018000870200088702000887020008870200082B
:10019000870200088702000887020008870200081B
:1001A00000000000000000008702000800F002F8D4
:1001B00000F04CF80AA090E8000C82448344AAF1B5
:1001C0000107DA4501D100F041F8AFF2090EBAE8B3
:1001D0000F0013F0010F18BFFB1A43F0010318477B
:1001E0006875000088750000103A24BF78C878C18F
:1001F000FAD8520724BF30C830C144BF04680C602D
:10020000704700000023002400250026103A28BF74
:1002100078C1FBD8520728BF30C148BF0B60704778
:10022000662907F01782642900F0C4800020704717
:100230001FB507F00AFA00F0E1FC040000200021DD
:1002400007F066F8E0601FBD10B510BD00F0DEFDE0
:100250001146FFF7EDFF06F0A1FD00F0FCFD03B431
:10026000FFF7F2FF03BC06F094FA0000094880474C
:1002700009480047FEE7FEE7FEE7FEE7FEE7FEE788
:10028000FEE7FEE7FEE7FEE704480549054A064BA0
:1002900070470000E5590008AD010008E80B002098
:1002A000E8110020E80D0020E80D0020704753EA17
:1002B000020C00F069802DE9F04B4FF00006002B96
:1002C0001FBFB3FA83F503FA05F424FA05F65E407E
:1002D00012BF1643B2FA82F502FA05F4C5F1200501
:1002E0001EBF22FA05FC44EA0C04203556EA044CF1
:1002F0004FEA144418BF641C4FF000084FF0000987
:10030000904271EB030C39D3002919BFB1FA81F780
:1003100001FA07F6B0FA80F700FA07F6C7F12007EE
:100320001EBF20FA07FC46EA0C062037B6FBF4FC99
:10033000A7EB0507103F07F01F0BCBF120060CFAC7
:100340000BFB2CFA06F644BFB3460026202FA4BFB1
:100350005E464FF0000B5BEA060C08BF4FF0010B46
:1003600019EB0B09ABFB027C48EB0608C01B06FB34
:1003700002CC0BFB03CC71EB0C01C1E70B46024630
:1003800041464846BDE8F08B13B54FF000004FF0F2
:100390000001AFF30080BDE81C4070470FB4044972
:1003A00010B503AA029800F0E5FB10BC5DF814FB41
:1003B000340000202DE9F04106460024106875291C
:1003C000314616A510D0AFF30080002802DA404273
:1003D00013A507E031688A0701D512A502E0490795
:1003E00004D511A5012401E0AFF3008000210A2209
:1003F00006F1240709E0B0FBF2FCB0FBF2F302FBCC
:100400001C00303078541846491C0028F3D123468C
:100410002A463046BDE8F04100F02CB9000000004B
:100420002D0000002B000000200000002DE9F04707
:100430004FF0000A89460446C0F820A02046E16833
:100440008847002876D0252806D0D4E90121904796
:10045000206A401C2062F1E7E168204600258847B9
:10046000C4F81CA006460027C4F818A02A2E09D0FC
:10047000304606F087F938B304EB8708303EC8F8F9
:10048000186019E059F8041B204604EB87029161BB
:10049000E1688847012F064618D1E069002820DA74
:1004A00025F020051DE0D8F8180000EB800006EBD1
:1004B00040003038C8F818002046E16888470646F2
:1004C00006F060F90028EED1012F0AD02E2E08D1B7
:1004D0002046E16888477F1C0646022F45F020052C
:1004E000C4DBA069002803DA404245F00105A061A1
:1004F000E80701D025F01005B6B1A6F14100192892
:1005000002D8203645F400654A463146204625602B
:100510004D46FFF785FE58B1012806D0ED1D25F0A8
:10052000070000F1080989E704E005F1040985E7FF
:1005300030468AE7206ABDE8F087032A40F230801F
:1005400010F0030C00F0158011F8013BBCF1020F14
:10055000624498BF11F801CB00F8013B38BF11F895
:10056000013BA2F1040298BF00F801CB38BF00F8AC
:10057000013B11F0030300F00F83083AC0F008803C
:1005800051F8043B083A51F804CBA0E80810F5E70D
:10059000121D5CBF51F8043B40F8043BAFF30080F0
:1005A000D20724BF11F8013B11F801CB48BF11F865
:1005B000012B24BF00F8013B00F801CB48BF00F835
:1005C000012B70474FF000020429C0F0128010F098
:1005D000030C00F01B80CCF1040CBCF1020F18BF1F
:1005E00000F8012BA8BF20F8022BA1EB0C0100F0B2
:1005F0000DB85FEAC17C24BF00F8012B00F8012B85
:1006000048BF00F8012B70474FF0000200B51346B9
:1006100094469646203922BFA0E80C50A0E80C5022
:10062000B1F12001BFF4F7AF090728BFA0E80C50D3
:1006300048BF0CC05DF804EB890028BF40F8042BCC
:1006400008BF704748BF20F8022B11F0804F18BF39
:1006500000F8012B7047704770477047704710B51E
:1006600000F0D0FA006810BD10B5044600F0CAFAD8
:10067000046010BD2DE9F0470D46994692460446A8
:1006800000F124080168880604D5E06921F0100112
:10069000216000E00120A84201DD471B00E00027A7
:1006A000A1697A1902EB0900081AA0612078C00636
:1006B00002D42046AFF30080002608E0D4E90121EF
:1006C0001AF806009047206A401C761C20624E45AE
:1006D000F4DB2078C0060AD52046AFF3008006E0A0
:1006E000D4E9012130209047206A401C2062381E46
:1006F000A7F10107F4DC07E0D4E9012118F80500AF
:100700009047206A401C2062281EA5F10105F3DCF9
:100710002046AFF300802078000602D50220BDE815
:10072000F0870120FBE770472DE9FF4F0C461E467E
:100730004FF0FF378BB0D2E90001DDF860800A90FE
:100740008A46C1F30A5505B93D46002108464FF0D7
:100750000000BAF1000F00F4400005DA00EB800061
:100760004FF4400101EA50004FEA9059B9F1010FEE
:1007700000DDB9460A9850EA4A000ED044F61050FF
:10078000A5F2FF3545432F14B8F1000F1ED0754276
:10079000291E1EDDC9F100021CE0B8F1010F4FF067
:1007A000000001D0302103E0F24305E02154401C59
:1007B000B042FBDB30460022002121540B99C1F8E6
:1007C0000880C1E900200FB0BDE8F08FBD1B6D1C93
:1007D000DEE74A4600DA694206A800F09DFA06AB59
:1007E00093E8070003AB83E8070050460A9900F03E
:1007F0007BFB8DE80700A0F500501F3800900398A0
:10080000002D0ADD42F21F014A460844002303A9D5
:100810000390684600F0E4FD09E0A0F500504A4668
:100820001F38002303A90390684600F0EEFD8DE811
:1008300007000004000C03D04FF0FF30410800E037
:100840001046B8F1000F03D00022009215461EE0BA
:10085000751E05D400F0DAF9303262556D1EF9D5F7
:10086000B3460122084302D000227F1C04E0207816
:10087000302801D100227F1E002A099784D01DE074
:10088000112D07DA00F0C2F9303262556D1C50EAC2
:100890000102F5D1084302D00098C8B10EE0002152
:1008A000681E05E0235C625C63542254401E491CB0
:1008B0008142F7DBAB46A81B401E0990002004F8DC
:1008C0000B000B98099AC0F80880C0E9002B7AE762
:1008D00011264FF0000857E72DE9F04F88460446EF
:1008E000D21D22F0070191B0D1E90001CDE90A0142
:1008F00005F0DFFC02460B98C00F01D02D2007E069
:100900002068810701D52B2002E0202101EAC000E8
:10091000032A099001D0072A05DB034641462046F9
:1009200000F0BAF90BE12078800601D5E06900E01B
:100930000620B8F1650F814606D0B8F1660F18D0D1
:10094000B8F1670F70D131E00020B9F1110F0090BC
:1009500001DB112301E009F101030AAA01A90CA896
:10096000FFF7E2FEDDE90C70002609F10105834680
:1009700047E001204B4600904FF000470AAA01A92A
:100980000CA8FFF7D1FEDDE90DB00C995D460026FD
:1009900010B909F101000D18B9EB050003D4C0F13D
:1009A000FF3609F10105A5EB09002BE0B9F1010FB4
:1009B00001DA4FF001090020B9F1110F009048460B
:1009C00001DD112300E003460AAA01A90CA8FFF7E4
:1009D000ABFEDDE90C704D4600268346207800070B
:1009E0000AD4AB4500DA5D4601A8012D04DD4119AA
:1009F00011F8011C302907D04F4502DA17F1040F16
:100A000004DA012082460FE06D1EEEE7002F02DCC3
:100A1000ED1B3E4403E0781CA84200DD7D1CB81BA2
:100A200000F1010A4FF000472078000703D4AA45DF
:100A300001DB4FF0FF3A0021B7F1004F0DF1430801
:100A40008DF8431024D002202B23002F01DA7F429F
:100A50002D230A21021EA0F1010000DC5FB197FBEB
:100A6000F1FC97FBF1F201FB1C7C17460CF1300CFA
:100A700008F801CDEEE7A8F101000370218809050F
:100A800001D5452100E06521A0F1010800F8011C15
:100A900009980FA9A1EB0807FF1D00B1012041191A
:100AA00001EBEA70A1693844081A401EA061207861
:100AB000C00602D42046AFF30080099828B1D4E9DB
:100AC00001219047206A401C20622078C00622D570
:100AD0002046AFF300801EE0002E04DBB34502DDAC
:100AE00001A8805D00E03020D4E901219047206A10
:100AF000401C2062761CAAF101005FEA000A0AD1BC
:100B000000F07CF8C0680168405CD4E9012190479E
:100B1000206A401C2062281EA5F10105DCDC07E0EC
:100B2000D4E9012118F8010B9047206A401C20628B
:100B3000381EA7F10107F3DC2046AFF30080032045
:100B400011B041E601694A1C02610878704700B59E
:100B50008FB0CDE901310021059105497944CDE9F6
:100B6000031011466846FFF761FC0FB000BD00009E
:100B7000E5FFFFFF074B70B50D467B44FFF7E7FF2E
:100B80000446284600F03AF910B14FF0FF3070BD2E
:100B9000204670BDBF60000010B5203AC0F00B8049
:100BA000B1E81850203AA0E81850B1E81850A0E871
:100BB0001850BFF4F5AF5FEA027C24BFB1E81850CB
:100BC000A0E8185044BF18C918C0BDE810405FEA3B
:100BD000827C24BF51F8043B40F8043B08BF7047B7
:100BE000D20728BF31F8023B48BF11F8012B28BFBC
:100BF00020F8023B48BF00F8012B704700487047BF
:100C0000A80B002000487047880B002030B5B0F1D9
:100C10000A024FEA900E71F100034EEA817EB0EBBA
:100C20000E0061EB91014FEA101E4EEA017E10EBBF
:100C30000E0041EB11114FEA102E4EEA016E10EB3F
:100C40000E0041EB11214FEA104E4EEA014E10EB1F
:100C50000E0041EB1141401841F100014FEAD00074
:100C600040EA41704FEAD10110EB80054FEA810460
:100C700044EA907444EB01046D1944EB0404521BE4
:100C8000A3414FF0000348BF0A3200D530BD401CDD
:100C900041F1000130BD00002DE9F0411F4604463E
:100CA00003260168072A01F4006004DB08B116A5D9
:100CB00005E016A503E008B115A500E015A521F093
:100CC00010002060A069C01EA0610FB1401EA0618D
:100CD0002046AFF300804FB1D4E901213846904758
:100CE000206A401C2062C01C206206E0206AFAE7ED
:100CF000D4E9012115F8010B9047761EF8D2204661
:100D0000AFF30080BDE8F0814E414E006E616E0091
:100D1000494E4600696E66002DE9F0478146164649
:100D20008AB0354878440DC88DE80D0032487844C3
:100D3000801C03AC0DC884E80D0041F69B300844CC
:100D4000372190FBF1F290FBF1F5A5F1800501FB55
:100D500012041B3C02D56442012000E00020DFF8B1
:100D600098A080460027FA44AAF1BE0A0EE0E007E8
:100D70000AD03246684607EB470101230AEB81019E
:100D800000F043FB8DE8070064107F1C002CEED1BF
:100D9000194F7F44AE3F19E0E80715D007EB041068
:100DA0000DF1180A90E80E008AE80E00C068F042C3
:100DB00001D1981908903246012306A903A800F032
:100DC00024FB03AB83E807006D10641C002DE3D106
:100DD0004FF0010332466946B8F1000F03A802D074
:100DE00000F0FEFA01E000F010FBC9E90001C9F8CB
:100DF00008200AB0BDE8F087086A0000007B00F018
:100E00008000704700487047880B00207546FFF748
:100E1000F9FFAE4605006946534620F007008546B7
:100E200018B020B5FFF730FABDE820404FF00006BB
:100E30004FF000074FF000084FF0000B21F00701C2
:100E4000AC46ACE8C009ACE8C009ACE8C009ACE805
:100E5000C0098D46704710B50446AFF300802046A8
:100E6000BDE81040FFF7FBB94FF0013C50F8042BF0
:100E700051F8043B9A4221D1A2EB0C03934313EAAD
:100E8000CC1317D150F8042B51F8043B9A4215D1DA
:100E9000A2EB0C03934313EACC130BD150F8042BB1
:100EA00051F8043B9A4209D1A2EB0C03934313EA95
:100EB000CC13DBD04FF00000704700BFD01A01BA4E
:100EC000B1FA81F101F0180122FA01F0CB40C1F131
:100ED0002001DBB2C0B2C01A2CFA01F3D11A91433F
:100EE00011EAC311E6D170475FEA400C08BF91F0E8
:100EF000000F4FEA8C234FEAC12243EA51514FEAD7
:100F00001C5018BF00F5F0404FEA300018BF41F008
:100F100000415FEA6C5C00F02980BCF1FF3F08BF34
:100F200040F080407047130C06BF12044FF0100CC5
:100F30004FF0000C130E04BF12020CF1080C130F3B
:100F400004BF12010CF1040C930F04BF92000CF1CA
:100F5000020CD30F04BF52000CF1010C11464FF0EC
:100F60000002A0F11F00A0EB0C00704711F0004F31
:100F700008BF704731F000413FF4D5AF0B0C06BFFE
:100F800009044FF0100C4FF0000C0B0E04BF0902C7
:100F90000CF1080C0B0F04BF09010CF1040C8B0FB2
:100FA00004BF89000CF1020CCB0F04BF49000CF107
:100FB000010CCCF12003A0EB0C0022FA03F302FA9F
:100FC0000CF241EA030100F10100704720F07F4C70
:100FD00080EA030023F07F47ACEB070303F57C5363
:100FE00000F0004003F1FF032DE980494FEA154B63
:100FF00009B44FEA144325EA0B4E24EA03480FF2E2
:10100000042606EB132749083E785FEA320203FB09
:101010000667C7F5000707FB06F64FEA54374FEAA5
:10102000D64606F1020607FB066CCCF1005C4FEADF
:101030001C472CEA074C07FB06F40CFB06F504EBF7
:1010400015464FEA961634BF00204FF000404FEA95
:10105000D13706FB07FC4FEA1C4C0CFB0BF7D21BED
:1010600003FB0CF761EB07010CFB0EF7B0EB07403D
:1010700072EB17420CFB08F734BFA2EB0742B2EB4E
:10108000074261EB17414FEA0C444FEA910706FB18
:1010900007FC4FEA1C4C0CFB0BF7B0EBC74072EBA4
:1010A000573203FB0CF734BFA2EBC742B2EBC74287
:1010B00061EB57310CFB0EF7B0EBC70072EB5772C8
:1010C0000CFB08F734BFA2EBC702B2EBC70261EB1F
:1010D0005771039F4FEA816141EA921104EBCC04FE
:1010E0004FEAD1374FEA826206FB07FC42EA9012D0
:1010F0004FEA80604FEA1C4C0CFB0BF7D21B03FB42
:101100000CF761EB07010CFB0EF7B0EB074072EB3D
:1011100017420CFB08F734BFA2EB0742B2EB0742C1
:1011200061EB17414FEA8C554FEA910704EB9C2481
:1011300006FB07FC4FEA1C4C0CFB0BF7B0EBC7405F
:1011400072EB573203FB0CF734BFA2EBC742B2EB92
:10115000C74261EB57310CFB0EF7B0EBC70072EBE7
:1011600057720CFB08F734BFA2EBC702B2EBC70201
:1011700061EB577115EB4C254FEA816141EA921101
:101180004FEA82624FEAD13742EA901206FB07FC2F
:1011900044F100044FEA80604FEA1C4C0CFB0BF753
:1011A000D21B03FB0CF761EB07010CFB0EF7B0EB56
:1011B000074072EB17420CFB08F734BFA2EB074263
:1011C000B2EB074261EB174115EB1C154FEA813179
:1011D00041EA92414FEA823242EA90424FEA80303D
:1011E0004FEA0C7644F1000448EA03434EEA0B4808
:1011F0004FF0000EB2EB080C71EB030724BF624600
:1012000039464EEB0E0E4FF0000B0018524149418B
:101210004BEB0B0BB2EB080C71EB03077BF1000BF4
:1012200024BF624639464EEB0E0E4FF0000B0018FD
:10123000524149414BEB0B0BB2EB080C71EB03072E
:101240007BF1000B24BF624639464EEB0E0E51EA8D
:10125000020718BF46F0010616EB0E7655F10002A4
:1012600054F1000103D5BDE88901BDE80088BDE85F
:101270008901BDE80048B619524141EB0101A3F1D3
:101280000103704780807F7E7D7C7B7A79787776DA
:1012900076757473727171706F6E6E6D6C6C6B6A53
:1012A0006A696868676666656464636362616160F1
:1012B000605F5F5E5E5D5D5C5C5B5B5A5A5959586E
:1012C00058575756565555555454535352525251D8
:1012D000515050504F4F4F4E4E4D4D4D4C4C4C4B2E
:1012E0004B4B4A4A4A494949484848474747474675
:1012F00046464545454444444443434343424242B1
:1013000042414141002B9C4630D477002BD01CB584
:101310004FEA370703B44FF010004FF01001BAF155
:10132000000F06D0BCF1000FDCBF40F0080040F019
:1013300008014FF000000FBCBDE810400BF1010B9D
:10134000BBF1010F08BF5FEA170722BF12F10102CC
:1013500011F101014FF0004143F1000300F00040A2
:1013600043EA00007047F9D35708D0E746EA06463B
:1013700013F1400F4FEA16461FDD13F1200FDFBFB8
:1013800016430A46002120335B42BED0C3F120073A
:1013900046EA064602FA07F74FEA164646EA070605
:1013A000C3F1200722FA03F201FA07F721FA03F149
:1013B0004FF0000342EA0702A7E746EA020646EAC0
:1013C00006464FEA164646EA0106BCBF46EA06460E
:1013D000360C4FF000034FF000024FF0000194E78D
:1013E0002DE9804C9A46934670B491E8380007C8BE
:1013F00031EA400C48BF34EA430C03D5FFF7E6FD61
:10140000FFF780FFF0BCBDE8008C2DE9804C9A46C8
:10141000934670B491E8380007C810F0804F08BFB9
:1014200013F0804F03D100F005F8FFF76BFFF0BC1D
:10143000BDE8008C20F07F4780EA030023F07F4C5A
:1014400007EB0C03A3F57C5300F00040A3F1FE036F
:1014500092F0000F00F0B38095F0000F00F077805D
:101460002DE901494FEA11404FEA144621EA0048AC
:1014700000FB06FC24EA064708FB06F607FB08F813
:1014800000FB07F718EB06484CEB164C4FEA124BE3
:1014900018EB07484FEA15464CEB174022EA0B4E73
:1014A0000BFB06FC25EA06470EFB06F607FB0EFEC5
:1014B0000BFB07F71EEB064E4CEB164C4FF00006ED
:1014C0001EEB074E4CEB174B18EB0B0840F10000DE
:1014D00018EB0E0B58EB000840F100008F1A4FF08C
:1014E00000013CBFC943661B14BFB5EB040C0021CF
:1014F0003CBFC943F61B4FEA17444EEA8E0E27EA5B
:1015000004454FEA1C4704FB07622CEA074C05FB25
:1015100007F70CFB05F604FB0CFC16EB074642EB49
:10152000174216EB0C4642EB1C421BEB060658EB2F
:101530000202414146EA9E0601D5BDE80189B6197D
:10154000524141EB0101A3F10103BDE801894FEADA
:1015500014454FEA114724EA054621EA074C05FBEA
:1015600007F406FB07F70CFB06F105FB0CFC11EB7F
:10157000074144EB17444FEA124711EB0C4144EB8F
:101580001C4422EA074C05FB07F206FB07F70CFB9D
:1015900006F605FB0CFC16EB074642EB174216EB72
:1015A0000C4642EB1C456A1854F1000148BF7047D5
:1015B000B619524141EB0101A3F10103704795F0C7
:1015C000000F37D04FEA11424FEA144721EA024692
:1015D00024EA074C02FB07F106FB07F70CFB06F4B5
:1015E00002FB0CFC14EB074441EB17414FEA154793
:1015F00014EB0C4441EB1C4125EA074C02FB07F5B8
:1016000006FB07F70CFB06F602FB0CFC16EB074685
:1016100045EB174516EB0C4645EB1C42121951F1F0
:10162000000148BF7047B619524141EB0101A3F1D7
:10163000010370474FEA14454FEA114724EA054673
:1016400021EA074C05FB07F106FB07F70CFB06F246
:101650004FF0000605FB0CFC12EB074241EB174173
:1016600012EB0C4251EB1C4148BF7047921841EB02
:101670000101A3F10103704710B504F09FFD054C73
:101680000120207001F01AFA6060BDE8104002A04D
:10169000FEF784BE1400002073746172740D0A009A
:1016A000FEE7000010B50021034802F047FABDE84C
:1016B000104000F003B80000A4020020024948F2E4
:1016C0003520096848637047A402002048F234219D
:1016D000884202D34FF0000001E0A1EB0000024974
:1016E00080B2096848637047A402002044F6206174
:1016F000642801D2642002E0884200D908460549E6
:10170000B1FBF0F00449401E80B20A68D062C860A4
:1017100070470000804A5D05A402002010B540F625
:10172000B830FFF7E3FF46F2A7142046FFF7CEFFDD
:10173000642001F077F8FFF7C1FF642001F072F830
:101740002046FFF7C3FF642001F06CF8FFF7B6FFF7
:10175000642001F067F840F68C242046FFF7C6FFAE
:1017600044F21A10FFF7B2FF4FF4C87001F05AF8B4
:10177000FFF7A4FF2046BDE81040FFF7B7BF000009
:10178000014800F0F8BB000024010020014800F0EF
:10179000F2BB000024010020014800F0ECBB000077
:1017A0004C010020014800F0E6BB00004C01002085
:1017B00038B50E4C4FF4007525600025A560E56036
:1017C000082525610A4C050A25706070080AA0707A
:1017D000E170100A20716271180AA071E3716B4602
:1017E00022460249034800F05DFA38BDE80A0020AD
:1017F0001901002024010020B4EEE00AF1EE10FAF5
:1018000002D2B0EE600A7047B4EEC10AF1EE10FAEF
:10181000F9DDB0EE410A704710B504F0EFFC124C50
:10182000207848B102280BD006281BD00B2819D1EC
:10183000BDE8104003F036BABDE8104003F060BBCD
:10184000012004F06BF894ED020AD4ED080A074970
:1018500030EE600AB0EEC00A10EE100A884201DADB
:101860000320207010BD0000580B00200000A04095
:10187000014800F065BE00001C060020014800F091
:101880005FBE00007C060020014800F059BE000049
:101890005C050020014800F053BE0000BC0500209C
:1018A000014800F04DBE0000DC060020014800F0B9
:1018B00047BE00009C040020014800F041BE00002B
:1018C0003C070020014800F03BBE0000FC04002063
:1018D00001681823CAB2103AB2FBF3F2054B6FF35A
:1018E0000901032A9B5CC36500D9091D816508466F
:1018F000704700005876000810B5014600208B693B
:101900008A6A4FF0C07453B1B3F5005F15D072B15D
:10191000012A0CD0022A0AD0032A09D104E01AB104
:10192000012A06D0022A03D1C96AC90100D50120C3
:1019300010BDC96AA142FAD010BD002AF7D0012A11
:10194000F2D0022AF3D0032AF3D010BD30B50468D8
:10195000256825F480252560046863608368402B32
:10196000036803D099600068C26030BD9A60006867
:10197000C16030BD70470000DFED040A9FED041A1E
:1019800060EE200A80EE810A70470000DB0F4940BC
:1019900000003443042000F059BF00002DE9F0415D
:1019A00030210E48FEF730FE322000F03BFF0024CD
:1019B0000A4E25460127204605F04CF904EB440168
:1019C000028806EB8100641C028146F821504560C4
:1019D000E4B28772042CEED3BDE8F081000B002046
:1019E00010B5044603280CD805F034F905490288DF
:1019F00004EB440301EB83000281002241F8232021
:101A0000426010BD000B002030B5032822D8124CD4
:101A100000EB400304EB8302907A00281AD010896F
:101A2000081A00B210F5805F05DA556800F500501D
:101A30006D1C556007E0B0F5805F05DD5568A0F5C9
:101A400000506D1E556000B254F82350284444F8ED
:101A50002300118130BD0000000B0020032801D9B4
:101A600000207047024900EB400051F82000704709
:101A7000000B0020032801D900207047034900EB28
:101A8000400001EB8000406870470000000B002020
:101A900072B6FEE710B52DED0A8BF0EE609AB0EE4F
:101AA00041AAB0EE618AF0EE428AB0EE629AB3EEDD
:101AB000061AF9EE080AFFF79FFEF0EE40AAB0EE14
:101AC000690AB3EE0E1AFAEE000AFFF795FEB0EEC1
:101AD00040BAB0EE4A0ADFED65BAB0EE6B1A9FED80
:101AE00064CAF0EE4C0AFFF787FEB0EE40AAB0EEF3
:101AF000480AB3EE061AF9EE080AFFF77DFEF0EE8B
:101B0000409AB0EE680AB3EE0E1AFAEE000AFFF73A
:101B100073FEF0EE408AB0EE490AB0EE6B1AF0EEBA
:101B20004C0AFFF769FEB0EE408ABDEECA0A10EE1D
:101B3000100A01B2002003F0BFFABDEEC80A10EE91
:101B4000100A01B2012003F0B7FA4A4CB1EE048A40
:101B500094ED010A3BEE409A29EE080AB0EEC00A65
:101B60009FED45BAB0EE4B1A9FED44AAF0EE4A0A3B
:101B7000FFF742FEBCEEC00A10EE100AC1B2002010
:101B800003F034F9B5EEC09AF1EE10FA01D8012154
:101B900000E00021002003F013F994ED040AB0EEF8
:101BA0004B9AF0EE4A0A7AEEC0AAB0EE491A2AEE33
:101BB000880AB0EEC00AFFF71FFEBCEEC00A10EEA6
:101BC000100AC1B2012003F011F9F5EEC0AAF1EE3E
:101BD00010FA01D8012100E00021012003F0F0F803
:101BE00094ED070AB0EE491AF0EE4A0A78EEC08A80
:101BF00028EE880AB0EEC00AFFF7FEFDBCEEC00A70
:101C000010EE100AC1B2022003F0F0F8F5EEC08A1F
:101C1000F1EE10FA01D8012100E00021022003F0CA
:101C2000CFF894ED0A0AB0EE491AF0EE4A0A79EEBE
:101C3000C08A28EE880AB0EEC00AFFF7DDFDBCEED0
:101C4000C00A10EE100AC1B2032003F0CFF8F5EE7F
:101C5000C08AF1EE10FA01D8012100E00021BDECAC
:101C60000A8B0320BDE8104003F0AAB80000FA4434
:101C700000800944C00800200000C84200000000A5
:101C800090F82020012A07D0022A05D0416A41F4A9
:101C90008021416201207047006842690A43426125
:101CA00000207047F0B590F820500468A468012D1A
:101CB00005D0022D03D0416A41F4802157E014F091
:101CC000406F01D1E5004FD5C4F301640125A54063
:101CD0001D608D684FF4C0739DB1CE6835434E686A
:101CE00045EAC605066803EB0417F5514FF4C275C3
:101CF000076805EB04150E697E51097D012905D0A1
:101D000009E00E88CD6845EA4655EBE701684E5973
:101D100046F480764E511179D579567941EA0561BC
:101D200095792D0445EA062529434FF4C6760568C2
:101D300006EB0416A9511178D57841EA056195782A
:101D400052782D0445EA022211434FF4C47502680B
:101D500005EB04155151006803EB0411425842F0A1
:101D6000010242500020F0BD416A41F4001141627D
:101D70000120F0BD10B590F82020012A07D0022ADA
:101D800005D0416A41F480214162012010BD3B48E9
:101D9000D0F8002242F00102C0F80022D0F8002260
:101DA00022F47C52C0F80022D0F800224B6A42EAAA
:101DB0000322C0F800220A7D02F01F0301229A408C
:101DC000D0F81C329343C0F81C32CB69B3B9D0F8B9
:101DD0000C329343C0F80C328C894B6864F31F4378
:101DE0004C6900EBC404C4F840320C890B6864F3FE
:101DF0001F434C6900EBC404C4F84432CB69012B87
:101E000016D1D0F80C321343C0F80C320C884B6852
:101E100064F31F434C6900EBC404C4F840320C89DE
:101E2000CB6864F31F434C6900EBC404C4F844322C
:101E30008B69002BD0F804320ED01343C0F8043263
:101E40000B69002BD0F8143208D01343C0F81432B9
:101E5000096A012904D008E09343EFE79343F5E7CB
:101E6000D0F81C121143C0F81C12D0F8001221F057
:101E70000101C0F80012002010BD00000064004005
:101E8000704770B590F82040012C05D0022C03D08B
:101E9000416A41F4802128E0046809B32469A40759
:101EA00020D04FF4D874056804EB01142D5915F0B7
:101EB0000405956005682D591AD0ED085560056830
:101EC0002C5904F00204D4604FF4DA74056804EB72
:101ED00001142E5906F00F06082E0CD308250DE02C
:101EE000E468DCE7416A41F400114162012070BD01
:101EF0006D0D1560E3E72D5905F00F0515610568B7
:101F00002D59C5F30725956105682C59240C54619A
:101F10004FF4DC72046802EB0112A4581C700468D0
:101F2000A458240A5C700468A458240C9C700468AB
:101F3000A258120EDA704FF4DE72046802EB01123E
:101F4000A4581C710468A458240A5C710468A4583D
:101F5000240C9C710468A258120EDA71006829B131
:101F6000016941F020010161002070BDC16841F0AC
:101F70002001C160F8E72DE9F05F05460068002404
:101F80004669D0F804908768D0F80CB0D0F810A05B
:101F9000D0F81880F10748D0F90714D001218160EA
:101FA000B80703D5284600F06AFA0CE0780702D596
:101FB0004FF4006407E0380702D54FF4805402E084
:101FC000284600F05BFAF80516D529684FF48070B2
:101FD0008860B80503D5284600F053FA0CE0780570
:101FE00002D544F4005407E0380502D544F4804497
:101FF00002E0284600F044FAF80316D529684FF4A9
:1020000080308860B80303D5284600F03CFA0CE025
:10201000780302D544F4004407E0380302D544F4C1
:10202000803402E0284600F02DFA300707D55FEA39
:10203000CB6004D52968102044F40074C860700790
:102040004FF0080707D55FEA0B7004D52868C76012
:10205000284600F0A9F9B00706D52868C0688007AF
:1020600002D0284600F0A2F9700607D55FEACA60E0
:1020700004D52968102044F480640861B00607D5AF
:102080005FEA0A7004D528680761284600F0C6F99F
:10209000F00606D528680069800702D0284600F0BF
:1020A000BEF9B00308D55FEAC96005D529681020DC
:1020B0004860284600F0B4F9F00307D55FEA0970DC
:1020C00004D528684760284600F0DEF9300446D57C
:1020D0005FEA497040D5F00504D55FEAC87001D0C9
:1020E00044F00104B00504D55FEA887001D544F0DE
:1020F0000204700504D55FEA487001D544F0040479
:10210000300529D518F0700F26D008F0700040284F
:1021100015D006DC102809D020280AD0302816D186
:102120000AE050280ED0602811D10EE044F00804D7
:102130000DE044F010040AE044F0200407E044F00D
:10214000400404E044F0800401E044F48074286812
:10215000816921F070018161296804204860002CA8
:1021600005D0686A204368622846FFF789FEBDE80B
:10217000F09F70B5040003D094F8200010B104E083
:10218000012070BD204600F081F82068016841F010
:102190000101016000F092FC0546052604E000F014
:1021A0008DFC401B0A2811D820684068C007F6D073
:1021B0002068016821F00201016000F07FFC054603
:1021C0000BE000F07BFC401B0A2806D9606A40F453
:1021D0000030606284F82060D2E7206840688007A1
:1021E000EFD4207E0128206801683DD021F08001D5
:1021F0000160607E01282068016838D021F040012C
:102200000160A07E01282068016833D021F0200100
:102210000160E07E0128206801682ED041F01001A5
:102220000160207F01282068016829D021F0080181
:102230000160607F01282068016824D021F004013A
:102240000160D4E902010843D4E9041211430843B0
:102250006168491E08432168C8610020606201204E
:1022600084F82000002070BD41F08001C0E741F0FB
:102270004001C5E741F02001CAE721F01001CFE796
:1022800041F00801D4E741F00401D9E7F0B587B087
:10229000044614216846FEF7B7F93E4B3E48DFF886
:1022A000F0E01968D4F800C03B4A0325022609274C
:1022B00010300024491CF4452AD11960012907D1A6
:1022C000016841F000710160006800F00070059045
:1022D000106840F0080010601068CDE9005600F06A
:1022E0000800CDE9047069462C48CDE9024500F0AC
:1022F000B9FA00220121132000F07AFC132000F02B
:1023000069FC00220121142000F072FC14203BE043
:10231000DFF88CE0F44539D1D0F800C04CF0806C87
:10232000C0F800C0D0F800C001290CF0806CCDF8D6
:1023300014C0196007D1016841F0007101600068A4
:1023400000F000700590106840F002001060106806
:1023500002AB00F0020005904FF44050CDE90006BA
:1023600083E8B00069460F4800F07CFA00220121A2
:102370003F2000F03DFC3F2000F02CFC002201211A
:10238000402000F035FC402000F024FC07B0F0BDF8
:10239000006400401000002030380240000C024071
:1023A00000680040000402407047000010B58CB087
:1023B00002AB04AA0021FFF764FD0498A0F50071A8
:1023C000013905D0012903D0022901D003291FD1E9
:1023D0001049401EC0B208700F4A00EB800102EBAA
:1023E000410332F811401C81BDF8084064BA22F85C
:1023F0001140BDF80A4064BA5C80BDF80C4064BA74
:102400009C809DF80E409C7132F81110FFF7FCFA89
:102410000CB010BD18010020C00A002070477047A2
:102420007047000070B5044690F82000012804D0E1
:10243000606A40F40020606218E0022084F8200006
:102440002068016821F00101016000F037FB0546BA
:102450000EE000BF00F032FB401B0A2808D9606A7A
:1024600040F400306062052084F82000012070BD37
:1024700020684068C007EDD1606270BD704770474A
:10248000704770477047704770472DE9F041044628
:10249000876D00F013FB064694F8350000250228EE
:1024A00006D08020606584F834500120BDE8F081BA
:1024B0002068016821F0160101602068416921F05F
:1024C00080014161206C08B9A06C20B120680168CE
:1024D00021F0080101602068016821F0010101601C
:1024E0000CE000F0EBFA801B052807D9202060657E
:1024F000032084F8350084F83450D7E7206800685A
:10250000C007EED194F85C103F208840B8600120ED
:1025100084F8350084F834500020C7E790F835106F
:10252000022903D08021416501207047052180F8F0
:1025300035100068016821F001010160002070473A
:102540002DE9F84304464FF00009CDF800906348A8
:102550004FF41651A56D0068B0FBF1F72E6894F8A2
:102560005C10082000FA01F131420FD021680A689E
:1025700052070BD50A6822F004020A6094F85C1036
:102580008840A860606D40F00100606594F85C10C0
:102590004FF0010808FA01F0304208D0216849697B
:1025A000090604D5A860606D40F00200606594F8EB
:1025B0005C1004208840304208D0216809688907EF
:1025C00004D5A860606D40F00400606594F85C106C
:1025D00010208840304218D021680968090714D5B6
:1025E000A86020680168490304D50068000308D585
:1025F000A16C07E00168C90503D4016821F0080156
:102600000160216C09B12046884794F85C102020B5
:102610008840304231D021680968C9062DD5A860AC
:1026200094F8350005282068016806D0490347D58D
:10263000006800031DD4616C1CE021F016010160EC
:102640002068416921F080014161206C08B9A06CCB
:1026500020B12068016821F00801016094F85C1045
:102660003F208840A86084F8358084F83490216D3C
:102670001FE0E16B09B120468847606D00282BD030
:10268000606DC00714D0052084F83500206801680B
:1026900021F0010101600098401C0090B84203D86D
:1026A00020680068C007F6D184F8358084F834903B
:1026B000E16C002910D001B02046BDE8F043084786
:1026C0000168C905D5D4016821F01001016084F8C2
:1026D000358084F83490CCE7BDE8F8830C00002006
:1026E0002DE9F041044600F0E9F906465CB102200C
:1026F00084F83500002584F834502068016821F002
:10270000010101600DE00120BDE8F08100F0D6F983
:10271000801B052805D920206065032084F835003A
:10272000F2E720680068C007F0D1226811682048ED
:102730000140D4E901031843D4E903363343184375
:1027400063691843A3691843E3691843236A18436C
:102750000843616A042903D1D4E90B1319430843E0
:10276000106020684069666A20F0070130460E4319
:10277000012704280CD1A06A0643E06A40B1204634
:10278000FFF7BAF820B14020606584F83570BAE7E9
:10279000206846612046FFF79BF894F85C203F21B3
:1027A00091408160656584F835700020ACE70000D9
:1027B0003F8010F02DE9F0410446866D90F834001A
:1027C000002501280DD0012084F8340094F83570DC
:1027D0000020012F07D084F8340002252846BDE8E8
:1027E000F0810220FBE7022784F8357060652046FF
:1027F000FFF7ACF894F85C103F208840B060206888
:10280000016841F016010160206C20B12068016868
:1028100041F0080101602068016841F00101016098
:10282000DCE7000070B5044600F048F90546601C7E
:1028300002D004480078044400F040F9401BA04254
:10284000FAD370BD0000002070470000044910B5A5
:102850000A68024202D00860FFF7F6FF10BD0000D0
:10286000143C01402DE9F84FDFF8F8A100220124C3
:1028700003254FF00F090AF1040BAAF1040E00BF63
:102880000B6804FA02F63340B34270D10F7907F0B7
:102890000307012F01D0022F16D187684FEA4208A3
:1028A00005FA08FC27EA0C07D1F80CC00CFA08FC62
:1028B0004CEA070CC0F808C04768B7430E79C6F366
:1028C000001696403E4346600E79F643B6070AD09E
:1028D000C7684FEA420C05FA0CF6B7438E6806FA51
:1028E0000CF63E43C6600E7906F00306022E10D1A8
:1028F000D60800EB8608D8F8206057074FEAD76C57
:1029000009FA0CF7BE430F6907FA0CF73743C8F80A
:10291000207006684FEA420C05FA0CF7BE430F79A7
:1029200007F0030707FA0CF7374307604E6816F401
:10293000403F1CD04C4E376847F4804737603668BC
:1029400022F0030706F480460096484E07EB060C7B
:10295000DCF8086897073F0F09FA07F826EA080627
:10296000DFF80C81404503D14FF0000841E072E0F0
:10297000DFF80081404502D14FF0010839E0DFF86F
:10298000F880404502D14FF0020832E0DFF8EC80D9
:10299000404502D14FF003082BE0DFF8E4804045CA
:1029A00002D14FF0040824E0DFF8D880404502D17E
:1029B0004FF005081DE0DFF8D080404502D14FF010
:1029C000060816E0DFF8C480404502D14FF0070842
:1029D0000FE0DFF8BC80404502D14FF0080808E066
:1029E000DFF8B080404502D14FF0090801E04FF018
:1029F0000A0808FA07F848EA0608CCF80888DAF85E
:102A000000605746D1F804C09E435FEACC2C00D545
:102A10001E433E60DBF800605F46D1F804C09E4371
:102A20005FEA8C2C00D51E433E60DEF800607746DE
:102A3000D1F804C09E435FEA8C3C00D51E433E6043
:102A4000084F083F3E68D1F804C09E435FEACC3C83
:102A500000D51E433E60521C102AFFF411AFBDE8A2
:102A6000F88F0000083C014044380240003001402B
:102A7000000002400004024000080240000C024036
:102A8000001002400014024000180240001C0240E6
:102A900000200240002402400069084000D00120CC
:102AA0007047426921EA02030A4043EA0241816118
:102AB00070470AB1816170470904FBE701488068EB
:102AC000704700000000002002488168027811442D
:102AD00081607047000000200B4810B5016841F488
:102AE00000710160016841F480610160016841F496
:102AF00080710160032000F09BF80F2000F006F8C1
:102B000000F050F8002010BD003C024030B50546F2
:102B10001F4887B00024016841F01001016000687F
:102B200006A900F01000009001A800F065F90498D3
:102B3000A8B100F081F940001649174AB0FBF1F145
:102B40001648491E026040F2E732C0E90324C0E99A
:102B50000114846100F04EFD040003D015E000F084
:102B60006BF9E9E70D4800F0B7FD04000DD1362000
:102B700000F030F8102D07D200222946362000F050
:102B800037F80748056000E0012407B0204630BD53
:102B90004038024040420F00001000409C070020D7
:102BA000040000200A4808B5016841F48041016032
:102BB000006800F4804000900548001F016841F063
:102BC00080510160006800F08050009008BD000056
:102BD00044380240002809DB00F01F020121914027
:102BE0004009800000F1E020C0F8001170470000AB
:102BF000F0B40E4B1B680C46C3F30223C3F1070568
:102C0000042D00D90425191D072901D2002300E055
:102C1000DB1E012606FA05F1491E214099409E401F
:102C2000761E16403143F0BC03F06EBB0CED00E0A5
:102C3000064900F0070208684FF6FF03184040EA13
:102C40000220034A10430860704700000CED00E0CA
:102C50000000FA052DE9F8431748016841F080515A
:102C600001600068154F00F08050012600903E641E
:102C7000FFF724FF05464FF47A78114C05E000BFBA
:102C8000FFF71CFF401B40450DD86068C003F7D517
:102C90007E64FFF713FF0546464607E0FFF70EFF89
:102CA000401BB04202D90320BDE8F883606880036E
:102CB000F4D50020F8E700004038024000000E4242
:102CC000007000402DE9F0470E46050065D0DFF8A2
:102CD0001481D8F80000F7B200F00F00B04207D21C
:102CE00088F80070D8F8000000F00F00B04254D10E
:102CF00028683D4C810712D5400703D5206840F471
:102D0000E05020602878000703D5206840F4604038
:102D100020602068A96820F0F0000843206028782F
:102D2000C0072DD0304968680839012812D0022820
:102D300013D0032811D00968890700292DDA2168EA
:102D400021F0030101432160FFF7B8FE814641F203
:102D5000883A0EE009688903EFE709688901ECE722
:102D6000FFF7ACFEA0EB0901514502D90320BDE8F5
:102D7000F0872068696800F00C00B0EB810FEFD19C
:102D8000D8F80010404601F00F01B14207D9077092
:102D9000006800F00F00B04201D00120E7E728787A
:102DA000400705D52068E96820F4E050084320601A
:102DB0002878000706D52068296920F4604040EA99
:102DC000C100206000F058F82168084AC1F30311DF
:102DD000515CC8400649086006480068FFF796FE47
:102DE0000020C4E7003C024008380240607600083A
:102DF0000C000020040000200F2202600C4A13681F
:102E000003F003034360136803F0F0038360136867
:102E100003F4E053C36012684FF4E05303EAD202B4
:102E200002610448006800F00F000860704700006D
:102E300008380240003C024004480549006809681F
:102E4000044AC1F38221515CC84070470C00002045
:102E5000083802407076000804480549006809688F
:102E6000044AC1F34231515CC84070470C00002055
:102E70000838024070760008154810B5006810F058
:102E80000C02144813D01449042A0FD0082A0ED17A
:102E90000F4C241F2268236802F03F025B0207D513
:102EA0002068C0F38810A0FB010106E0084610BDB1
:102EB0002168C1F38811A1FB00010023FDF7F7F998
:102EC0002168C1F30141491C4900B0FBF1F010BD7C
:102ED000083802400024F400001BB7002DE9F84F29
:102EE00004006ED02078DFF84C93C007A9F10405E8
:102EF0004AD009F104000168C1F38101012908D019
:102F00000068C0F3810002280AD1D9F8000040020D
:102F100006D52868800337D560680028E1D033E003
:102F20006068B0F5803F10D0B0F5A02F286810D0B1
:102F300020F480302860286820F4802028606068B1
:102F4000A8B1FFF7BBFD06460DE0286840F48030CD
:102F5000F4E740F480202860F7E700BFFFF7AEFDFC
:102F6000801B642873D828688003F7D50CE0FFF72E
:102F7000A5FD064605E000BFFFF7A0FD801B642805
:102F8000F0D828688003F7D42078DFF8AC82800777
:102F90004FF0000A3ED5A748001D016811F00C0F44
:102FA00008D00068C0F3810002280BD1D9F80000D6
:102FB000400207D42868800716D5E068012800D1B0
:102FC00012E033E1E068B8B10120C8F80000FFF773
:102FD00075FD064605E000BFFFF770FD801B022867
:102FE000C0D828688007F7D52868216920F0F80044
:102FF00040EAC10028600DE0C8F800A0FFF75EFDC0
:10300000064604E0FFF75AFD801B02281FD82868F7
:103010008007F7D42078000722D5864F874861695A
:10302000703771B101210160FFF748FD064604E0E9
:10303000FFF744FD801B022809D838688007F7D5C0
:103040000EE0C0F800A0FFF739FD064605E082E07B
:10305000FFF734FD801B02287DD838688007F7D43D
:103060002078400768D5DFF8CCB100270BF13C0B86
:10307000DBF80000C0000BD4DBF8001041F08051F9
:10308000CBF80010DBF80000012700F08050009022
:103090006B4E3068C00510D4306840F480703060EA
:1030A000FFF70CFD009005E0FFF708FD0099401ABE
:1030B000022850D83068C005F6D55E4EA0686C3640
:1030C00001280FD00528306810D020F001003060B2
:1030D000306820F004003060A068B8B1FFF7EEFC63
:1030E00000900FE0306840F00100F4E740F0040089
:1030F0003060F7E7FFF7E2FC0099411A41F28830AF
:10310000814266D830688007F4D50EE0FFF7D6FC20
:10311000009007E0FFF7D2FC0099411A41F2883095
:10312000814256D830688007F4D42FB1DBF8001004
:1031300021F08051CBF80010A069C8B33D49091DAA
:103140000968C1F3810102294AD00228504607D0FC
:10315000C8F8600000E03CE0FFF7B0FC04463BE04C
:103160004746C8F86000FFF7A9FC064605E000BF27
:10317000FFF7A4FC801B02282BD828688001F7D415
:10318000D4E907010843A16A2E4A490802EB01412C
:10319000626A41EA8211084394F82C1040EA016106
:1031A000C9F8001001203866FFF788FC044606E0E5
:1031B0003EE000BFFFF782FC001B022809D8286808
:1031C0008001F7D534E000BFFFF778FC001B022830
:1031D00002D90320BDE8F88F28688001F4D427E0E5
:1031E0000128F7D0D9F80000E26900F4800191428B
:1031F0001CD1226A00F03F01914217D147F6C071FD
:10320000626A0140B1EB821F10D1A26A4FF0FF3316
:1032100000F4403103EB5202B1EB024F06D194F8B7
:103220002C1000F07060B0EB016F01D00120D1E7ED
:103230000020CFE70438024000004742800E47429A
:10324000007000400000FFFF70B5040009D0606A04
:10325000002540B125616561A56294F8510040B137
:103260000CE0012070BD6068B0F5827FF4D0E561AC
:10327000F2E784F85050204600F044F8022084F829
:1032800051002068016821F040010160A088218977
:1032900000F4827001F404410843A18901F4006143
:1032A0000843217C01F002010843217D01F0010166
:1032B0000843218B01F400710843217F01F038019C
:1032C000084394F8201001F080010843218D01F497
:1032D0000051084321680860A069042101EA1040F8
:1032E00094F8241001F01001084321684860206818
:1032F000C16921F40061C1616565012084F8510054
:10330000002070BD10B586B0044614216846FDF754
:103310007BF914492068884221D1134800210268B2
:1033200042F400520260006800F4005005900E481C
:103330001438026842F010020260006800F01000C9
:1033400005904FF4835000900220CDE90101032045
:1033500003900520049069460448FFF783FA06B0FD
:1033600010BD00000034014044380240001002400B
:103370002DE9FF4F81B01D46934604464FF00109E9
:103380000E9EFFF79BFB074694F8510061680128E9
:1033900006D0B1F5827F3CD1A168C9BB042838D1E1
:1033A0000298002871D0BBF1000FFBD0002DF9D09E
:1033B00094F8500001282CD04FF0010A84F850A056
:1033C00094F85100042802D0052084F851004FF0F1
:1033D0000008C4F85480C4F838B0E587A58702997E
:1033E0002163E586A586C4F84080C4F8448020683F
:1033F0000168490603D4016841F040010160E068BA
:10340000B0F5006F606808D0F0B3012D49D081E0BD
:10341000FFE7022005B0BDE8F08F08B1012D39D1DA
:10342000206B21680088C860206B801C2063E08EC0
:10343000401EE0862EE02068816889070FD5E18E66
:1034400069B1B9F1010F0AD1216B0988C160206B04
:10345000801C2063E08E401EE0864FF0000920684B
:103460008168C9070CD0E18F51B1C068A16B088099
:10347000A06B801CA063E08F401EE0874FF0010925
:10348000FFF71CFBC01B01E00BE067E0B04201D37B
:10349000701C50D1E08E0028CDD1E08F0028CAD119
:1034A0003EE0206B216800780873206B401C20638D
:1034B000E08E401EE0862DE02068816889070FD5E8
:1034C000E18E69B1B9F1010F0AD1216B097801735D
:1034D000206B401C2063E08E401EE0864FF0000908
:1034E00020688168C9070CD0E18F51B1C068A16B19
:1034F0000870A06B401CA063E08F401EE0874FF077
:103500000109FFF7DBFAC01BB04202D3701C01D0E7
:1035100011E086B1E08E0028CED1E08F0028CBD11B
:103520003A463146204602F063F950B120206065EA
:1035300084F8508012E084F851A084F85080032071
:1035400068E7A06818B92068C1688068009084F8AE
:1035500051A084F85080606D0028F1D0012059E717
:103560007047704770B590F83C20012A32D0012492
:1035700080F83C40022280F83D2003685A689D682C
:1035800022F070060A6832435A60134B02689A426E
:1035900014D0B2F1804F11D0104B9A420ED0104B84
:1035A0009A420BD00F4B9A4208D00F4B9A4205D04B
:1035B0000E4B9A4202D00E4B9A4204D1496825F034
:1035C00080031943916080F83D40002180F83C1051
:1035D000084670BD022070BD00000140000400409C
:1035E00000080040000C0040000401400040014081
:1035F0000018004010B5040003D094F83D0010B14D
:1036000007E0012010BD002084F83C00204600F0B7
:103610001FF8022084F83D00211D206802F04EFAB8
:10362000012084F8460084F83E0084F83F0084F8C6
:10363000400084F8410084F8420084F8430084F894
:10364000440084F8450084F83D00002010BD0000CF
:1036500008B501681D48B1F1804F11D01C4A914254
:103660001DD1016841F0020101600068002200F0F4
:103670000200009011461D20FFF7BAFA1D201FE03E
:10368000016841F0010101600068002200F00100C2
:10369000009011461C20FFF7ABFA1C2010E00D4AE9
:1036A000914211D1016841F00801016000680022D7
:1036B00000F00800009011463220FFF799FA3220FE
:1036C000BDE80840FFF786BA08BD00004038024058
:1036D00000040040000C004090F83D10012901D08A
:1036E00001207047022180F83D100168CA6842F04D
:1036F0000102CA6000681149884214D0B0F1804FBD
:1037000011D00F4988420ED00E4988420BD00E4985
:10371000884208D00D49884205D00D49884202D020
:103720000C49884204D1816801F00701062903D0C1
:10373000016841F001010160002070470000014074
:103740000004004000080040000C0040000401405C
:10375000004001400018004070B5044690F83C005D
:103760000025012817D0012684F83C60022084F847
:103770003D002068826822F0770222F47F42826056
:103780000868502838D00DDC20284FD005DC90B3D5
:10379000102811D14AE0022070BD302846D04028C0
:1037A0000AD13BE060282FD070280DD0B0F5805FA3
:1037B00003D0B0F5005F12D0012584F83D600020F1
:1037C00084F83C00284670BDCB68D1E9012120680F
:1037D00002F0E9F92068816841F0770109E0CB68DF
:1037E000D1E90121206802F0DEF92068816841F406
:1037F00080418160E1E719E0CA684968206802F009
:10380000A7FA5021206806E0CA684968206802F0DB
:10381000B0FA6021206802F0D0F9CEE7CA684968A2
:10382000206802F095FA40212068F4E722680146FA
:103830001046F0E770472DE9F04104460068C6687D
:1038400005694FF00007A90713D5B10711D5F91E77
:10385000016101202077206880698007204602D01E
:10386000FFF7E8FF04E000F0BFF8204600F064F93D
:103870002777680716D5700714D521686FF0040004
:103880000861022020772068806910F4407F20467C
:1038900002D0FFF7CFFF04E000F0A6F8204600F0CA
:1038A0004BF92777280715D5300713D521686FF016
:1038B00008000861042020772068C069800720463E
:1038C00002D0FFF7B7FF04E000F08EF8204600F0CA
:1038D00033F92777E80616D5F00614D521686FF07E
:1038E00010000861082020772068C06910F4407F2C
:1038F000204602D0FFF79EFF04E000F075F8204656
:1039000000F01AF92777E80708D0F00706D02168F9
:103910006FF001000861204600F074F9280608D510
:10392000300606D521686FF0800008612046FFF759
:1039300017FE680608D5700606D521686FF04000AE
:103940000861204600F076F9A8060AD5B00608D529
:1039500021686FF0200008612046BDE8F041FFF7C4
:1039600000BEBDE8F081000010B586B00446142109
:103970006846FCF749FE2368002117480222B3F18C
:10398000804F17D0154CA34212D1036843F0800337
:103990000360006800F08000059040200090CDE9B1
:1039A00001210920CDE9031069460D48FEF75AFFB1
:1039B00006B010BD036843F001030360006800F027
:1039C000010005900F200090CDE901210120CDE9F3
:1039D000031069460348E9E7303802400018004008
:1039E000001C024000000240704770B5044690F889
:1039F0003C0000260D4601280FD0012084F83C0031
:103A00006AB1042A1DD0082A2FD00C2A3FD00126E3
:103A1000002084F83C00304670BD022070BD206854
:103A200002F0D4F82068816941F0080181612068C2
:103A3000816921F004018161206881692A6911434B
:103A400011E0206802F0F2F82068816941F4006119
:103A500081612068816921F48061816120688169C8
:103A60002A6941EA02218161D2E7206802F014F953
:103A70002068C16941F00801C1612068C16921F075
:103A80000401C1612068C1692A69114311E02068FD
:103A900002F036F92068C16941F40061C161206813
:103AA000C16921F48061C1612068C1692A6941EA64
:103AB0000221C161ACE710B5040003D094F83D00C9
:103AC00010B107E0012010BD002084F83C00204622
:103AD00000F01EF8022084F83D00211D206801F04E
:103AE000EDFF012084F8460084F83E0084F83F0092
:103AF00084F8400084F8410084F8420084F84300D0
:103B000084F8440084F8450084F83D00002010BD8E
:103B100008B500680649884208D10648016841F0A6
:103B200040010160006800F04000009008BD000006
:103B300000180040403802407047000010B50446AD
:103B4000022249B104290ED0082913D094F841006B
:103B5000012816D0012010BD94F83E000128F9D1AB
:103B600084F83E200FE094F83F000128F2D184F859
:103B70003F2008E094F840000128EBD184F8402071
:103B800001E084F841200122206801F0FFFF16497E
:103B90002068164A884201D0904203D1436C43F416
:103BA000004343642068884213D0B0F1804F10D0A6
:103BB0000F4988420DD00F4988420AD00E498842E9
:103BC00007D0904205D00D49884202D00C49884266
:103BD00004D1816801F00701062903D0016841F092
:103BE00001010160002010BD0000014000040140FF
:103BF0000004004000080040000C0040004001406C
:103C00000018004000680849884201D101F0FEBE5A
:103C10000649884201D1FEF757BF0549884201D1C4
:103C200001F096B970470000000400400010004009
:103C3000000C00407047704770470000F8B50168FD
:103C400004460868CA684B6910F00F0F4FF0000572
:103C500059D003F0010602F49077374365D0C107CD
:103C600005D0D10503D5616C41F0010161644107C4
:103C700005D5D90703D0616C41F002016164810769
:103C800005D5D90703D0616C41F0040161640107D7
:103C900007D502F02001314303D0616C41F00801E7
:103CA0006164616C00293AD0800604D5900602D583
:103CB000204602F023F920684069616CC0F380104F
:103CC000090700D460B3204602F0E3F82068406999
:103CD000400621D52068143050E8001F21F0400133
:103CE00040E80012002AF5D1E06BA8B172490165E5
:103CF000E06BFEF713FC002811D0E06B016D01B002
:103D0000BDE8F040084783060FD593060DD5204641
:103D1000BDE8F84002F0F2B82046FFF78DFFF8BD8D
:103D20002046FFF789FF6564F8BD266B2023012E2E
:103D30007ED1C6067CD5D6067AD50868486800903C
:103D400048694FF0020640064DD5E26B10684068A6
:103D50004FF480770004000C3AD0A18D814237D90E
:103D6000E085D069B8422DD020680C3050E8001FA3
:103D700021F4807140E80012002AF5D12068143047
:103D800050E8001F21F0010140E80012002AF5D19F
:103D90002068143050E8001F21F0400140E8001274
:103DA000002AF5D184F84230256320680C3050E8B1
:103DB000001F21F0100140E80012002AF5D1E06B4D
:103DC000FEF763FB6663A08DE18D401A81B206E0C9
:103DD000A18D8142A8D1D069B842A5D166632046A1
:103DE000FFF729FFF8BDA08DE18D401A81B2E08D6B
:103DF0000028F7D00029F5D020680C3050E8002FBB
:103E000022F4907240E80027002FF5D1206814308A
:103E100050E8002F22F0010240E80027002FF5D1E2
:103E200084F84230256320680C3050E8002F00E011
:103E300006E022F0100240E80023002BF3D1CDE78A
:103E400005062BD5150629D594F841002128C9D19E
:103E5000A068B0F5805F01D12069B0B1206A411C33
:103E60002162216800784860E08C401E0004000C4C
:103E7000E084B7D12068C16821F08001C16020686A
:103E8000C16841F04001C160F8BD206A0088C0F3FC
:103E900008004860206A801C2062E5E74006F3D5F0
:103EA0005006F1D5CA68204622F04002CA6084F864
:103EB000413000F090FAF8BD975D000870B504003D
:103EC00004D094F84100002510B106E0012070BD37
:103ED00084F84050204600F023F8242084F8410064
:103EE0002068C16821F40051C160204602F068F8E2
:103EF0002068016921F4904101612068416921F045
:103F00002A0141612068C16841F40051C1606564C3
:103F1000202084F8410084F842006563002070BDD1
:103F20002DE9F04F87B0054614216846FCF76CFB7D
:103F3000ED48EC4FD5F800C0EB4B103802220321BE
:103F4000EA4E00244FF0080ABC4518D11D6845F020
:103F500080451D601B6803F080430593036843F0B0
:103F6000100303600068CDE9024100F010000590E5
:103F7000C801CDE90002CDF810A0694617E0DC4F7A
:103F8000BC451AD11D6845F000451D601B6803F053
:103F900000430593036843F010030360006800F0DA
:103FA000100005908DE81600CDE9031A69463046E9
:103FB000FEF758FC07B0BDE8F08FDFF83883DFF874
:103FC00028E340273E010EF1040E4FF0070B4FF09F
:103FD0000069C44558D1DEF800C04CF0100CCEF892
:103FE00000C0DEF8003003F010030593036843F0CF
:103FF000020303600068CDE9024100F00200059071
:10400000C020CDE90002CDF810B06946BA48FEF7ED
:1040100029FCDFF8EC82B9494046C8F80010C0E935
:104020000194C0E90346C8F81440C8F81840C8F81D
:104030001C40C8F82040B246C8F82440FEF750FBA8
:1040400008B1FDF725FDAE4EC5F83C806036C8F8D6
:104050003850C6E90274C6E904A4B461A748F46103
:10406000346278307462C6E900093046FEF738FBE6
:1040700008B1FDF70DFDAE63002203212520B563D5
:10408000FEF7B6FD252060E0DFF87882C4455FD1F9
:10409000D3F800C0A0464CF4003CC3F800C01B6835
:1040A00003F400330593036843F0080303600068DA
:1040B000CDE9024100F0080005906020CDE9000242
:1040C000CDF810B069469048FEF7CCFBDFF830A27F
:1040D0008E490AF1C00A5046CAF80010C0E901949E
:1040E000C0E90346CAF81440CAF81840CAF81C4090
:1040F000CAF82040CAF82440FEF7F2FA08B1FDF7EA
:10410000C7FC834CC5F83CA08048CAF8385018302A
:10411000A760C4E90009C4E90386C4F81480C4F8A0
:104120001880C4F81C80C4F820802046C4F824807D
:10413000FEF7D6FA08B1FDF7ABFCAC630022032111
:104140002620A563FEF754FD2620FEF743FD31E748
:10415000DFF8C081C44560D1D3F800C0A0464CF45C
:10416000802CC3F800C01B6803F480230593036808
:1041700043F0080303600068CDE9024100F0080045
:1041800005904FF44070CDE90002CDF810B06946BB
:104190005D48FEF767FBDFF878A15C490AF1600A29
:1041A00060395046CAF80010C0E90194C0E90346DE
:1041B000CAF81440CAF81840CAF81C40CAF820408F
:1041C000CAF82440FEF78CFA08B1FDF761FC504CA8
:1041D000C5F83CA04D48C034CAF838503038A76004
:1041E000C4E90009C4E90386C4F81480C4F818803F
:1041F000C4F81C80C4F820802046C4F82480FEF750
:104200006FFA08B1FDF744FCAC63002203212720BC
:10421000A563FEF7EDFC272097E73F4B9C4596D121
:10422000DEF800C0A0464CF0200CCEF800C0DEF84E
:10423000003003F020030593036843F0400303605C
:104240000068CDE9024100F0400005904FF4844041
:10425000CDE90002CDF810A069463048FEF702FB18
:104260002649DFF8BC90183948464FF0206AC9F853
:104270000010C0E901A4C0E90346C9F81440C9F818
:104280001840C9F81C40C9F82040C9F82440FEF77E
:1042900027FA08B1FDF7FCFB214CC5F83C90174804
:1042A0006034C9F838506030A760C4E9000AC4E936
:1042B0000386C4F81480C4F81880C4F81C80C4F8BD
:1042C00020802046C4F82480FEF70AFA08B1FDF7E2
:1042D000DFFBAC63002211464720A563FEF788FC94
:1042E000472032E70078004040380240001002408A
:1042F000007C004000100140000402404064024085
:104300009C04002000440040000C024088600240F1
:10431000BC05002000480040001401400018024085
:10432000DC06002090F84230202B01D0022070479C
:1043300021B11AB10023036301F0C8BE0120704708
:1043400090F84230202B01D00220704721B11AB1E1
:104350000023036301F00ABF0120704730B4184AFC
:104360000168914224D1174841880A0416D40246B4
:104370004C0412784FF0000304D50A2A0DD141F401
:10438000004113E00D2A0FD0C1F30D040E4D491C5E
:1043900089B22A554180C72900D9438030BC012207
:1043A00008490A48FFF7CCBF41F480414180F5E756
:1043B000074A914202D130BC00F010B830BC7047BF
:1043C000004400402E000020F8070020C403002015
:1043D0000014014070477047FEE700000068034981
:1043E000884202D102490120087070470014014040
:1043F00010010020004870477B09002000F018B829
:1044000010B5084C8A2160600748FCF7DBF80020F3
:1044100020706070A070BDE8104074210348FCF764
:10442000D1B8000010010020F00900207B09002015
:1044300070B51C4D2878002824D01B4943220C4617
:10444000A1F1430002F0A6FB00202870164E4FF0A9
:10445000FF35433E96F84300592803D196F84400AF
:10446000532810D000204221225C592A03D122185F
:104470005278532A03D0401C80B28842F4DB00F00B
:1044800015F8284670BD4321204602F083F928B173
:104490004FEA050400F00AF8204670BD012486F8B2
:1044A0008840F7E710010020330A002004484068E4
:1044B000002803D043220349FFF734BF70470000B0
:1044C00010010020F009002010B52DED0A8BF0EE50
:1044D000618AB0EE609AB0EE418AFDF74DFAF0EED7
:1044E000409AB0EE490AFDF747FAB0EE40AAB0EEA6
:1044F000690A01F019FFB0EE409AB0EE4A0A01F0E5
:1045000013FF20EE28BAB0EE4A0A01F0B5FF08EE1C
:1045100040BADFED22AA3BEE2A0A29EE009AB0EE5D
:10452000690A01F0A9FF9FED1EBA00EE4B9AB0EEAA
:10453000690A01F0A1FFF0EE40BAB0EE4A0A01F0BC
:10454000F3FE20EE28CAB0EE4A0A01F095FF08EE0D
:1045500040CA3CEE2A0A6BEE80AAB0EE690A01F06E
:10456000E3FE40EE0BAAB0EE4A0AF0EE6A9A01F0C2
:1045700083FFF1EE680A60EE208AB0EE4A0A01F08D
:10458000D3FE48EE408A9FED070AF0EE690A38EE46
:10459000801AB0EE490ABDEC0A8B10BD66660A416E
:1045A000B81EB54014AEC9410F4810B50D490160A1
:1045B0000521416000214FF400328160C0E90312FF
:1045C00052014261017641768176C1760177417769
:1045D000FDF7CFFD002803D0BDE81040FDF758BA25
:1045E00010BD00000064004024010020104810B5F8
:1045F0000E4901600521416000214FF04072C0E981
:1046000002124FF40032026152014261017641769A
:104610008176C17601774177FDF7ABFD002803D0A5
:10462000BDE81040FDF734BA10BD0000006800403E
:104630004C010020294808B5016841F4800101605F
:10464000016801F480010091016841F400110160EA
:104650000068002200F40010009004210C20FEF7F6
:10466000C7FA0C20FEF7B6FA002204210E20FEF74E
:10467000BFFA0E20FEF7AEFA002204211020FEF74A
:10468000B7FA1020FEF7A6FA002204211120FEF747
:10469000AFFA1120FEF79EFA002211463920FEF7EC
:1046A000A7FA3920FEF796FA002211463A20FEF7C3
:1046B0009FFA3A20FEF78EFA002211464520FEF7B7
:1046C00097FA4520FEF786FA002204214620FEF7DD
:1046D0008FFABDE808404620FEF77CBA3038024029
:1046E0002DE9F04F87B014216846FBF78DFF7F4816
:1046F0000024016841F010010160016801F010011F
:104700000591016841F040010160016801F040013C
:104710000591016841F001010160016801F00101AA
:104720000591016841F002010160016801F0020198
:104730000591016841F008010160016801F008017C
:104740000591016841F480710160016801F4807194
:104750000591016841F080010160016801F080016C
:104760000591016841F020010160016801F020011C
:104770000591016841F0040101600068012200F028
:10478000040005904FF401615948FEF792F90122A7
:10479000DFF860B1570239465846FEF78AF9002221
:1047A00001215846FEF785F901223C215248FEF7C7
:1047B00080F94FF4FF78012241465048FEF779F91D
:1047C00044F22009002249464D48FEF772F90022C2
:1047D0004FF4E0514848FEF76CF94FF4704A00225C
:1047E00051464848FEF765F901223C214648FEF74C
:1047F00060F9012230214548FEF75BF910200125C0
:104800000226CDE90005CDE9024669463848FEF7A3
:1048100029F800970396CDE9015469465846FEF7FA
:1048200021F80095CDE90154694658460394FEF7F6
:1048300019F841F63C400090CDE9015469462E48F4
:104840000394FEF70FF8CDF80080CDE901546946D6
:104850002A480394FEF706F8CDF80090CDE90154FC
:10486000694627480394FDF7FDFFA8028DE8310053
:1048700069462348FDF7F6FFCDF800A0CDE90154C5
:10488000694620480394FDF7EDFF3C20CDE9000583
:10489000CDE9024669461C48FDF7E4FF042000907C
:1048A0004FF48810CDE9010669461948FDF7DAFF93
:1048B0003020CDE90005CDE9024669461348FDF7F1
:1048C000D1FFE8020090CDE90154694608480394FD
:1048D000FDF7C8FF002211460820FEF789F90820DD
:1048E000FEF778F907B0BDE8F08F000030380240DD
:1048F0000010024000200240001C0240001802404C
:1049000000140240000C0240000802400000024077
:1049100000040240104810B50E4901604FF4827146
:104920004160002181600122C160C0E9041252028D
:1049300082611822C0E90721416281620A21C162B5
:10494000FEF782FC002803D0BDE81040FDF7A0B8B8
:1049500010BD0000003401407401002010B588B083
:104960001C216846FBF750FE114810490024C0E99D
:10497000001448F23421C0E9024104618461FFF768
:104980009AF808B1FDF784F86020CDE9000402949C
:104990000022694606480494FFF727F808B1FDF79E
:1049A00077F80348FEF7E0FF08B010BD001800409C
:1049B000A402002010B58EB0002407940894099436
:1049C0000A940B941C2168460C94FBF71DFE2A48A0
:1049D0004FF0804101605921C0E901143121C0E943
:1049E000031480218161FEF705FE08B1FDF750F840
:1049F0004FF48050079007A91F48FEF7ADFE08B19D
:104A0000FDF746F81C48FFF756F808B1FDF740F8E7
:104A10000B940BA918480C94FEF7A4FD08B1FDF700
:104A200037F86020CDE9000402940022694612485C
:104A30000494FEF7DAFF08B1FDF72AF8042269466C
:104A40000D48FEF7D2FF08B1FDF722F808226946AB
:104A50000948FEF7CAFF08B1FDF71AF80C226946AB
:104A60000548FEF7C2FF08B1FDF712F80248FEF74D
:104A70007BFF0EB010BD0000CC01002010B586B049
:104A80000024174800940194029403940494134959
:104A9000059401604AF6C771C0E901140921C0E913
:104AA000031480218161FEF7A5FD08B1FCF7F0FF3A
:104AB0004FF48050009069460948FEF74DFE08B15A
:104AC000FCF7E6FF049404A905480594FEF74AFDA7
:104AD000002801D0FCF7DCFF06B010BD0004004048
:104AE0001402002010B586B00024174800940194E9
:104AF0000294039404941349059401605921C0E978
:104B0000011440F2E731C0E903148461FEF772FD3D
:104B100008B1FCF7BDFF4FF48050009069460A4889
:104B2000FEF71AFE08B1FCF7B3FF049404A9064887
:104B30000594FEF717FD002801D0FCF7A9FF06B089
:104B400010BD0000000C00405C0200200C4810B5B5
:104B50000A4901604FF4E1314160002181600C227B
:104B6000C160C0E904128161C161FFF7A7F90028A3
:104B700003D0BDE81040FCF78BBF10BD00780040AB
:104B8000EC0200200C4810B50A4901604FF4E131F5
:104B90004160002181600C22C160C0E90412816182
:104BA000C161FFF78BF9002803D0BDE81040FCF786
:104BB0006FBF10BD007C0040340300200C4810B5CE
:104BC0000A4901600B494160002181600C22C160EB
:104BD000C0E904128161C161FFF770F9002803D0B8
:104BE000BDE81040FCF754BF10BD000000100140AC
:104BF0007C030020A08601000C4810B50A49016022
:104C00004FF4E1314160002181600C22C160C0E9B4
:104C100004128161C161FFF751F9002803D0BDE89A
:104C20001040FCF735BF10BD00440040C403002015
:104C30000C4810B50A4901604FF4E1314160002190
:104C400081600C22C160C0E904128161C161FFF77B
:104C500035F9002803D0BDE81040FCF719BF10BD9E
:104C6000004800400C0400200C4810B50A490160BF
:104C70004FF4E1214160002181600C22C160C0E954
:104C800004128161C161FFF719F9002803D0BDE862
:104C90001040FCF7FDBE10BD00140140540400207C
:104CA000FEE7000070B52449012000240870234865
:104CB00001684C6301688C630168CC63006804641C
:104CC0001F4D22464FF480512846FDF7F2FE002288
:104CD0004FF400512846FDF7ECFE00224FF48041CE
:104CE0002846FDF7E6FE00224FF400412846FDF776
:104CF000E0FE144D002204212846FDF7DAFE0022D2
:104D000008212846FDF7D5FE002210212846FDF790
:104D1000D0FE002220212846FDF7CBFE0648401C8D
:104D2000011D44700A1D4C70131D54705C70C470DA
:104D3000CC70D470DC7070BD1C000020CC01002051
:104D4000000C0240001C024070B50F4D04460F4895
:104D500055F82410FEF7F2FE55F824000B4A002106
:104D600050B104280BD0082810680BD001642046ED
:104D7000BDE8704002F03EBA10684163F7E7106882
:104D80008163F4E7C163F2E778760008CC01002084
:104D900010B50020FFF7D8FF0120FFF7D5FF022054
:104DA000FFF7D2FFBDE810400320FFF7CDBF0000A2
:104DB00001480078704700001C000020FFF772BF18
:104DC00070B5054608480C46007800280BD12846E7
:104DD00001F04AFF84704078012804D12846BDE8DC
:104DE000704002F007BA70BD1C00002070B5054687
:104DF00027480C460078002849D1284601F034FFA6
:104E0000C4702146642C00D9642100EE101A9FED75
:104E1000221A0026F8EE400A9FED1E0A70EE600A84
:104E200060EE810A80EE801AB7EE000A31EE400A89
:104E3000B5EEC00AF1EE10FA01D232460AE010EEE9
:104E4000101A164A914201DD312203E0BCEEC00A7D
:104E500010EE102A124951F8253012494BB1042B9B
:104E60000AD00968082B0AD00A6454B101214170A4
:104E700008E009684A63F8E709688A63F5E7CA63E6
:104E8000F3E746702846BDE8704002F0B3B970BD44
:104E90001C0000200000C8420000484200004442BC
:104EA00078760008CC01002010B50446114800783F
:104EB00000281DD1204601F0D7FE00214170C170AD
:104EC0000D4850F824200D4852B1042A0BD0006838
:104ED000082A0BD001642046BDE8104002F08AB9D0
:104EE00000684163F7E700688163F4E7C163F2E7B4
:104EF00010BD00001C00002078760008CC010020C6
:104F000010B50020FFF7D0FF0120FFF7CDFF0220F2
:104F1000FFF7CAFFBDE810400320FFF7C5BF000040
:104F2000024900200870FFF7EBBF00001C000020C2
:104F3000FEE7000010B528210448FBF765FB034895
:104F40000021817380F8221010BD0000300B00207A
:104F50002DE9F04F4C484FF0000B2DED048B81B044
:104F6000CDF800B00188322906D2491C0023018007
:104F70001A461946184680E000249FED448ADFF85F
:104F80001081DFF81091DFED448A444E444DB0EEBD
:104F9000009A6F4642F6E06A204601F05BFEB0F9E7
:104FA0000220B0F9041004EB840305EB83000182B6
:104FB00035F9233000EE103AF8EEC00A00EE102A60
:104FC000B8EEC00A30EEC00AD0ED010A40EE080A81
:104FD00010EE902AC0ED010A424503DDDFED310AF3
:104FE000C0ED010A10EE902A4A4503D9DFED2E0AE2
:104FF000C0ED010AD0ED020A80ED020A90ED011A1F
:1050000070EE600A00EE091A60EEA80A31EE200A7E
:1050100010EE102AB24202DD9FED240A06E010EEE7
:10502000102A234B9A4201D99FED220A0029BDEE96
:10503000C00A10EE102A27F81420828100DA4942B3
:1050400009B2514501DD032109E0B1F5FA5F01DD47
:10505000022104E040F6B832914202DD0121817361
:1050600001E080F80EB0641CE4B2022C94D300235B
:10507000BDF90210BDF900001A46FCF799FB01B01A
:10508000BDEC048BBDE8F08F22010020CDCCCC3DDF
:1050900000803B4500803BC5CDCC4C3E00401C46CB
:1050A000300B002000803B4500803BC500401C4683
:1050B00000401CC600401CC6012804D8024A00EB70
:1050C000800022F820107047300B00202DE9F05F9F
:1050D00001250027DFF86CA0DFF86C8006463C460F
:1050E0004FF400794FF4806BF00701D0012200E00B
:1050F000002249465046FDF7DCFC7608642000F0AB
:105100006BF8002210214046FDF7D3FC642000F02C
:1051100063F859460D48FDF7BFFC08B17819C7B2CE
:105120006806050E012210214046FDF7C2FC012051
:1051300000F052F8641CE4B2072CD5D93846BDE81B
:10514000F09F0000002002400000024000140240D6
:10515000094810B5FF210170417000210161FFF77E
:1051600017FE00F0CBF80023BDE810401A461946A0
:105170001846FCF71DBB0000CC00002070B502F003
:1051800011F8144C607001F0E7FFA07001F0B6FD5B
:105190006078012813D10F2001F0D4FF06460E20BD
:1051A00001F0D0FF05461EB1607908B9FFF706FE91
:1051B00066711DB1A07908B9FFF7B2FEA57101F0C3
:1051C00065FE01F0ABFE01F06FFDBDE8704001F03F
:1051D00037BE0000CC000020002100EB800001E081
:1051E00000BF491CB1EB400FFAD3704710B5174C04
:1051F000002220212046FDF75CFC6420FFF7ECFF35
:105200000120FFF763FF4320FFF760FF0020FFF757
:105210005DFF0120FFF75AFF0020FFF757FF002036
:10522000FFF754FF0020FFF751FF0020FFF74EFF6C
:105230000020FFF74BFF012220212046FDF739FC1B
:10524000BDE810406420FFF7C7BF00000000024027
:1052500010B5174C002220212046FDF72AFC6420BF
:10526000FFF7BAFF0120FFF731FF4320FFF72EFFC2
:105270000020FFF72BFF0020FFF728FF5A20FFF741
:1052800025FF5A20FFF722FF5A20FFF71FFF5A2061
:10529000FFF71CFF5A20FFF719FF012220212046AB
:1052A000FDF707FCBDE810406420FFF795BF000044
:1052B0000000024001460022014801F070BC0000DD
:1052C000000100200146024A024801F068BC0000CB
:1052D000616D0008F00000200146024A024801F01A
:1052E0005EBC0000816D0008F8000020014600222D
:1052F000014801F054BC00000801002030B5114AFB
:1053000000208021106050609060D060106150617A
:105310009061D06102F1080302F1100402F1180556
:105320001154195421542954401C0428F8DB51719C
:1053300059710420D071D871E071E8710120907129
:10534000987130BDF000002010B5144C01221021DE
:105350002046FDF7AEFB012220212046FDF7A9FBE8
:1053600000F04CF800F04AF800F048F8FFF73EFF74
:1053700000F06AF8FFF76CFF01F014FF08480078AE
:10538000002809D1FFF732FF00F05EF8FFF760FF59
:10539000BDE8104001F006BF10BD00000000024053
:1053A000380000202DE9F041114F00242246202131
:1053B0003846FDF77EFB0A20FFF70EFF0D4D0E4E1F
:1053C00001E0022C01D2305D00E00020FFF77EFEFC
:1053D0002855641CE4B2092CF3D30122202138465D
:1053E000FDF767FBBDE8F0410A20FFF7F5BE0000BE
:1053F00000000240F00800204000002010B5114CD1
:10540000002220212046FDF754FB6420FFF7E4FE34
:105410000120FFF75BFE4220FFF758FE0020FFF758
:1054200055FE0020FFF752FE0020FFF74FFE01223D
:1054300020212046FDF73DFBBDE810406420FFF72A
:10544000CBBE00000000024010B5174C0022202106
:105450002046FDF72EFB6420FFF7BEFE0120FFF77C
:1054600035FE4420FFF732FE0020FFF72FFE01201B
:10547000FFF72CFEEE20FFF729FE0020FFF726FEA7
:105480000020FFF723FE0020FFF720FE0020FFF79B
:105490001DFE012220212046FDF70BFBBDE8104038
:1054A0006420FFF799BE0000000002407047000032
:1054B0002DE9F04F87B0FEF79DFF04464B4800787A
:1054C00001282CD00020FCF7D5FA83460120FCF7F8
:1054D000D1FAC0F1000A46482421B0F90220B0F9FF
:1054E000046092FBF1F9B0F90C20B0F90E5092FB78
:1054F000F1F88479077C3FA0FAF750FF5B4632460B
:10550000494643A00094FAF749FF53462A464146CC
:105510004BA00097FAF742FF07B0BDE8F08F54A008
:10552000FAF73CFFA06B02F01FF807468846206B95
:1055300002F01AF805460E46606B02F015F88DE889
:10554000E00141EC100B51A053EC102BFAF726FFB1
:10555000A06802F009F807468846606802F004F87F
:1055600005460E46206801F0FFFF8DE8E00141ECA2
:10557000100B51A053EC102BFAF710FF606901F0EB
:10558000F3FF07468846206901F0EEFF05460E4608
:10559000E06801F0E9FF8DE8E00141EC100B4CA060
:1055A00053EC102BFAF7FAFEDFF840A1DAF82800E6
:1055B00001F0DAFF80468946DAF81C0001F0D4FFDA
:1055C00006460F46DAF8100001F0CEFF04460D46FD
:1055D000DAF8040001F0C8FF8DE8F00341EC100B8D
:1055E00043A053EC102BFAF7D9FE95E7CF0000202B
:1055F000C00A00203D3D3D204D33353038204D6FF1
:10560000746F722044617461203D3D3D0D0A0000BD
:105610004D31202073706565645F72706D3A25644A
:105620002063757272656E743A2564207475726EAB
:10563000733A25642074656D703A25640D0A000084
:105640004D32202073706565645F72706D3A256419
:105650002063757272656E743A2564207475726E7B
:10566000733A25642074656D703A25640D0A000054
:105670003D3D3D20494D5520446174612028302E28
:10568000357329203D3D3D0D0A00000045756C65D0
:10569000723A20526F6C6C3A20252E32662C2050C4
:1056A000697463683A20252E32662C205961773A56
:1056B00020252E32660D0A004163633A20252E33E1
:1056C000662C20252E33662C20252E33660D0A00ED
:1056D000416E676C653A20252E32662C20252E32CD
:1056E000662C20252E32660D0A000000C00800201E
:1056F000454E433A20252E3166207C20252E3166EA
:10570000207C20252E3166207C20252E31660D0A36
:105710000000000030B52FA185B00400D1E90001E0
:10572000CDE903014FF000002C4D0190029008D00C
:10573000012C09D0022C1CD0032C43D100222021A3
:1057400004E00022042101E0002208212846FDF7A0
:10575000B0F90A200090052301AA03A92048FDF70B
:1057600007FE4CB1012C0AD0022C2DD0032C0BD1FA
:105770002DE000221021E9E70122042101E00122AD
:1057800008212846FDF795F9BDF80500DFED160A5A
:1057900040BA00EE100A134904EB4402B8EE400A86
:1057A00021F8220001EB82019DF8073020EE200A4B
:1057B000DFED0E0A0B729DF8082020EE200A4A72D7
:1057C00081ED010A05B030BD01221021D9E7012287
:1057D0002021D6E70500000000000000000802407C
:1057E00074010020C00800200000B443000080378E
:1057F000F8B515460E460B460092044601220221DA
:1058000000F02CF8A0B9134813490068B0FBF1F080
:105810004FF47A71484300906068B0F5827F0DD1F3
:105820003346002280212046009500F017F870B121
:10583000606D40F0200060650320F8BD009830B135
:10584000401E009020688068C0430006F6D5002006
:10585000F8BD00000C00002000366E012DE9F84371
:105860001E46914688460446089DFDF727F9401BD1
:10587000351AFDF723F9074626480068C0F3CB30F8
:1058800068430AE0701C09D0FDF718F9C01BA84254
:105890000FD275B10098B8B3401E0090206881689F
:1058A00038EA010033D000214945EBD10020BDE8A2
:1058B000F8832068416821F0E00141606068B0F53C
:1058C000827F0BD1A068B0F5004F02D0B0F5806F99
:1058D00004D12068016821F040010160A06AB0F5A0
:1058E000005F09D12068016821F40051016020683F
:1058F000016841F400510160012084F8510000204A
:1059000084F850000320D2E7FFE70025C6E7012115
:10591000CAE700000C0000207047000000280BD0F0
:105920000648D0EC031A002001EE100A00EE900A9F
:1059300000EE100AFCF7AEB8704700008876000849
:105940007047000030B593B030216846FAF75CFE2E
:1059500014210CA8FAF758FE20480025016841F0F0
:1059600080510160006800F0805011901C4801686F
:1059700041F4404101600068022400F4404011906D
:1059800001200090000401908001CDE9064006202E
:105990000890B420CDE9090404200B906846FDF777
:1059A0009DFA08B172B6FEE7FDF754F908B172B678
:1059B000FEE70CA90F2081E831004FF4A0500F90B2
:1059C0004FF48050109005210CA8FDF77BF90028BA
:1059D00001D072B6FEE713B030BD0000403802407F
:1059E000007000400248016841F470010160704796
:1059F00088ED00E00148FDF71EBF0000CC0100204B
:105A00000148FDF718BF0000140200200C480121D6
:105A100001704268521D4260017281724288521CBC
:105A2000428043880022052B01D342800173C38941
:105A30005B1CC381C389642B01D3C281017470478D
:105A4000E407002070B5164C207A0025012640B1ED
:105A5000607A30B925726672FEF7D0FCFBF7DCFE87
:105A60006572A07A30B1E07A20B9A572E67200F0D2
:105A7000BBFBE572207B30B1607B20B92573667378
:105A8000FFF77CFB6573207C002807D0607C002832
:105A900004D125746674FFF70BFD657470BD0000BA
:105AA000E40700200148FDF7C6BE00005C020020AC
:105AB0000148FDF7C0BE00009C070020F0B5026859
:105AC000274B284D284E294F294C4FF0804C9842A7
:105AD00009D0604507D0A84205D0B04203D0B842F3
